:020000040800F2
:10000000000400204701000801060008050500085B
:10001000FD0500081F030008F90E0008000000009D
:10002000000000000000000000000000E9080008D7
:1000300023030008000000008D060008DB0900080B
:1000400067010008670100086701000867010008F0
:1000500067010008670100086701000867010008E0
:1000600067010008670100086701000867010008D0
:1000700067010008670100086701000867010008C0
:1000800067010008670100086701000867010008B0
:1000900067010008670100086701000867010008A0
:1000A0006701000867010008670100086701000890
:1000B0006701000867010008670100086701000880
:1000C0006701000867010008670100086701000870
:1000D0006701000867010008FD0A000867010008C1
:1000E0006701000867010008670100086701000850
:1000F0006701000867010008670100086701000840
:10010000670100086701000867010008670100082F
:10011000670100086701000867010008670100081F
:10012000670100086701000867010008670100080F
:10013000DFF80CD000F0C2F800480047FD210008AD
:10014000E82C0020704708488047084981F3088858
:1001500007480047FEE7FEE7FEE7FEE7FEE7FEE7AB
:10016000FEE7FEE7FEE7FEE745010008E82C002079
:100170003101000840EA01039B070AD102E008C9E7
:10018000121F08C0042AFAD203E011F8013B00F85C
:10019000013B521EF9D27047D2B201E000F8012BA8
:1001A000491EFBD270470022F6E710B50446084608
:1001B000114602462046FFF7EFFF204610BD10B55E
:1001C000044604E00B7800F8013B03B1491C521EC1
:1001D000F8D2204610BDCAB20178914201D009B9C7
:1001E00000207047401CF7E70146002000E0401C5B
:1001F0000A5C002AFBD1704730B504460020034654
:1002000000E05B1C934203D2E05CCD5C401BF8D065
:1002100030BD034611F8012B00F8012B002AF9D15B
:100220001846704730B500252B4600E05B1C934212
:1002300005D2C45CCD5C651B01D1002CF6D12846EB
:1002400030BD0246C9B200E0401C0378002BFBD150
:1002500002E003788B4203D0401E9042F9D2002086
:1002600070472DE9F047002591469A460746884693
:100270002E46402418E022464146384600F040F819
:10028000B0EB090071EB0A010ED3224651464846F5
:1002900000F026F83F1A68EB0108224600210120F1
:1002A00000F01EF845194E41201EA4F10104E2DCC5
:1002B000284631463A464346BDE8F087064C074D8E
:1002C00006E0E06840F0010394E807009847103426
:1002D000AC42F6D3FFF730FF345B0008545B0008F4
:1002E000202A04DB0023203A00FA02F106E000FA9B
:1002F00002F39140C2F12002D040014318467047FA
:10030000202A04DB203A21FA02F000217047D04075
:10031000C2F1200301FA03F31843D140704700BF34
:10032000FEE7704700E0401E0028FCD17047000047
:1003300008B5012144F27C0000F0BAF92020ADF8A4
:10034000000010208DF8030003208DF8020069469C
:100350001B4800F03DF84820ADF8000069461948F8
:1003600000F036F81020ADF800006946164800F09D
:100370002FF84FF48450ADF800006946104800F0A3
:1003800027F80121114800F0A9F802210F4800F0D8
:10039000A5F84AF6FF70FFF7C5FF02210B4800F0F1
:1003A0009FF84AF6FF70FFF7BDFF1021064800F0E6
:1003B00097F84FF48451024800F092F808BD00000D
:1003C000000C0140001401400010014000180140E1
:1003D000F0B500220023002400250026002791F814
:1003E00003C00CF00F0291F803C01CF0100F03D0F3
:1003F00091F802C04CEA0202B1F800C01CF0FF0FF5
:1004000031D0066800242BE04FF0010C0CFA04F503
:10041000B1F800C00CEA0503AB4220D1A5004FF0B3
:100420000F0C0CFA05F7BE4302FA05FC4CEA06066F
:1004300091F803C0BCF1280F06D14FF0010C0CFA63
:1004400004FCC0F814C00AE091F803C0BCF1480FE6
:1004500005D14FF0010C0CFA04FCC0F810C0641C6C
:10046000082CD1D30660B1F800C0BCF1FF0F34DD19
:10047000466800242EE004F1080C4FF0010E0EFA3D
:100480000CF5B1F800C00CEA0503AB4221D1A50080
:100490004FF00F0C0CFA05F7BE4302FA05FC4CEACC
:1004A000060691F803C0BCF1280F05D104F1080C31
:1004B0000EFA0CFEC0F814E091F803C0BCF1480F2E
:1004C00007D104F1080C4FF0010E0EFA0CFEC0F833
:1004D00010E0641C082CCED34660F0BD416170472B
:1004E0000161704700BF012181F3108800BF0449FA
:1004F000086800BF002181F3108800BF704700002A
:100500001800002000BFFEE708B502F09BF902F0DA
:10051000D1FC00BF4AF6C000ADF8000040F6017003
:10052000ADF8020000BF00BFBDF80000154908800B
:10053000BDF80200488000BF00BF4AF6C000ADF819
:10054000000040F20110ADF8020000BF00BFBDF88E
:1005500000000D490880BDF80200488000BF00BFC0
:100560004FF6FF70ADF80000FF20ADF8020000BFAD
:1005700000BFBDF8000005490880BDF802004880B2
:1005800000BF08BD3A0000203E00002042000020CD
:1005900010B500F051FAFFF7CBFE00F0F9FA14495C
:1005A00009684FF47A72B1FBF2F0B0F1807F00D3AA
:1005B0001CE020F07F41491E4FF0E022516100BF56
:1005C0005117002905DA0F2109010A4A0B23D154DA
:1005D00004E00F210901084A5317D15400BF00213C
:1005E0004FF0E02291610721116100BF10BD0000B2
:1005F000FC3F000818ED00E000E400E000BFFEE76B
:100600007047000070B5002100230F22C4780CB39E
:10061000164C246804F4E064C4F5E064210AC1F1D6
:100620000403CA40447804FA03F184781440214357
:1006300009010F4C0678A155047804F01F05012428
:10064000AC4005786D114FF0E02606EB8505C5F846
:10065000004109E0047804F01F040125A540054C81
:100660000678761144F8265070BD00000CED00E0CD
:1006700000E400E080E100E002490143024A116029
:10068000704700000000FA050CED00E07047000024
:1006900029B1064AD2690243044BDA6104E0034AF5
:1006A000D2698243014BDA617047000000100240BA
:1006B00029B1064A92690243044B9A6104E0034A55
:1006C00092698243014B9A6170470000001002401A
:1006D00030B500210022002300242E4D6D6805F066
:1006E0000C0121B1042905D0082923D105E02A4DA8
:1006F000056022E0284D05601FE0264D6D6805F479
:100700007012244D6D6805F48033022505EB92428A
:100710001BB9224D554305600BE01E4D6D6815F465
:10072000003F03D01D4D5543056002E01A4D55436F
:10073000056002E0184D056000BF00BF154D6D68F3
:1007400005F0F0010909164D6C5C0568E54045604F
:10075000104D6D6805F4E061090A114D6C5C456847
:10076000E54085600B4D6D6805F46051C90A0C4D7C
:100770006C5C4568E540C560064D6D6805F4404118
:10078000890B074D10356C5CC568B5FBF4F5056148
:1007900030BD00000010024000127A0000093D0048
:1007A0001D00002000B587B001210803FFF780FF7E
:1007B000E020ADF8040001208DF8060018208DF827
:1007C000070001A91C48FFF703FE1020ADF8040044
:1007D00001208DF8060010208DF8070001A91648A9
:1007E000FFF7F6FD10211448FFF77AFE0020ADF860
:1007F00008004FF48270ADF80A000020ADF80C003C
:10080000ADF80E00ADF810004FF40070ADF8120016
:100810001020ADF814000020ADF816000720ADF848
:10082000180002A9054800F041F80121034800F032
:1008300023F807B000BD000000080140003001406F
:1008400010B5044600BF02210A4800F021F8002834
:10085000F9D02146074800F027F800BF01210548DC
:1008600000F016F80028F9D0024800F01AF8C0B2DB
:1008700010BD00000030014021B1028842F040026A
:10088000028004E002884FF6BF731A40028070476E
:100890000246002013890B4201D0012000E0002015
:1008A00070470146888970478181704710B50022E2
:1008B000028802F441520B884C8823438C882343DE
:1008C000CC8823430C8923434C8923438C892343BD
:1008D000CC8923431A430280838B4FF2FF74234059
:1008E00083830B8A038210BD704710B500F002F8B5
:1008F00010BD000000200021304A126842F480320E
:100900002E4B1A6000BF2D4A126802F40031401CC1
:1009100011B9B0F5A06FF6D1284A126812F4003F61
:1009200001D0012100E00021012943D1244A1268AD
:1009300042F01002224B1A601A46126822F003029B
:100940001A601A46126842F002021A601B4A526884
:100950001A4B5A601A4652685A601A46526842F454
:1009600080625A601A46526822F47C125A601A4613
:10097000526842F4E8125A601A46126842F08072D5
:100980001A6000BF0D4A126812F0007FFAD00B4ABD
:10099000526822F00302094B5A601A46526842F02C
:1009A00002025A6000BF054A526802F00C02082A8F
:1009B000F9D101E000BFFEE77047000000100240DF
:1009C00000200240017939B9016829B10168491E46
:1009D000016001D101210171704710B500F002F8EA
:1009E00010BD000010B5002406E0104901EBC40062
:1009F000FFF7E8FF601CC4B2042CF6DB0C4800785B
:100A0000401CC0B20A4908700A280DDB002008709B
:100A100008480068401C0749086008460068B0F1B3
:100A2000004F01D10020086010BD00009009002097
:100A30001C0000201800002010B51148006840F08C
:100A400001000F490860084640680E4908400C49FB
:100A50004860084600680C49084009490860084693
:100A6000006820F4802008600846406820F4FE00FA
:100A700048604FF41F008860FFF737FF10BD00008B
:100A8000001002400000FFF8FFFFF6FE30B58DB009
:100A9000054614480288144801686846FFF76AFB57
:100AA00000240DE01DF80410104800F0A8F900BF64
:100AB00080210E4800F0F2F80028F9D0601CC4B282
:100AC000084800888442EDDB00F022FD0848686099
:100AD00008480088A8600020074908700549088078
:100AE0000DB030BD50000020480000200044004000
:100AF000F8000020140000201200002010B540F281
:100B000025510D4800F0D7F880B140F225510A4830
:100B100000F023F8084800F06DF9C1B207480278E8
:100B20000078401C054B1870054881540548008822
:100B3000401C0449088010BD004400401200002001
:100B4000F80000201400002001F40072B2F5007FCC
:100B500000D100BFCA430280704710B500220023B5
:100B6000A1F510646A3C00D100BF0A120124944030
:100B7000A3B2DC43048010BD21B1828942F400524B
:100B8000828104E082894DF6FF731A4082817047AA
:100B900000B587B001210520FFF78AFD01218803F8
:100BA000FFF786FD01214804FFF772FD4FF4007046
:100BB000ADF8180018208DF81B0003208DF81A00DE
:100BC00006A93348FFF704FC4FF48060ADF8180025
:100BD00004208DF81B0006A92D48FFF7F9FB04201F
:100BE0008DF81B000820ADF8180006A92848FFF76B
:100BF000EFFB18208DF81B000420ADF8180003202F
:100C00008DF81A0006A92248FFF7E2FB4FF4E13005
:100C100002900020ADF80C00ADF80E00ADF8100009
:100C2000ADF814000C20ADF8120002A9194800F02C
:100C300091F802A9184800F08DF84FF4E060FFF732
:100C40001BFD26208DF8040001208DF805000020F2
:100C50008DF8060001208DF8070001A8FFF7D2FCEF
:100C6000012240F225510C4800F04FF801210948BB
:100C7000FFF782FF01210848FFF77EFF402105486A
:100C8000FFF762FF40210448FFF75EFF07B000BD99
:100C900000080140003801400044004002460020A6
:100CA000B1F5007F00D100BF13880B4201D00120B5
:100CB00000E00020704770B50246002300240025A4
:100CC0000020A1F510666A3E00D100BFC1F34215B5
:100CD00001F01F04012606FA04F4012D02D19689C1
:100CE000344006E0022D02D1168A344001E0968A93
:100CF00034400B12012606FA03F31688334014B170
:100D00000BB1012000E0002070BDF0B500240025EB
:100D100000260023A1F510676A3F00D100BF0346FB
:100D2000C1F3421401F01F05012707FA05F6012C53
:100D300001D10C3304E0022C01D1103300E0143354
:100D40001AB11F6837431F6002E01F68B7431F6076
:100D5000F0BD00002DE9F04786B004460D460026A0
:100D6000002700BF00BFB246A88900B100BFA2465D
:100D7000268A4CF6FF700640E88806432682A6893C
:100D80004EF6F3100640A88829890843698908436C
:100D90000643A681A68A4FF6FF400640A88906436F
:100DA000A68201A8FFF794FC54461148824501D160
:100DB000049F00E0039F07EBC70000EB07102968C2
:100DC0008900B0FBF1F86420B8FBF0F006013009AF
:100DD000642101FB1089322101EB09106421B0FB71
:100DE000F1F000F00F000643268106B0BDE8F08761
:100DF0000038014001468888C0F308007047C1F3FD
:100E0000080282807047000010B53648007868B943
:100E100001203449087032213248103801F0D9FDE0
:100E20004FF47A712F48083801F0D3FD01F00EFD20
:100E30002D49088008460088002824DD4FF4006012
:100E400001F0F8F82949898988420BD1012002F084
:100E5000ABF825480088002843DD01F093FE01F03F
:100E6000FFFC3EE040F6060001F0E4F81F498989E6
:100E7000884236D101F010FE1B480088002830DD82
:100E800001F0EEFC2DE01748103801F090FD40B362
:100E90001448103801F098FD002415E000BF04EB61
:100EA0008400134901EBC00012490860022002F0DF
:100EB0007BF800BF0C480088002803DD01F062FECB
:100EC00001F0CEFC601CC4B2282CE7DB05480838D2
:100ED00001F06DFD28B10348083801F075FD01F0FF
:100EE00021FF10BD1000002050000020B00900209C
:100EF000B41900205800002000BFFEE70FB410B561
:100F000003A9044B044A029800F02CF810BC5DF8C9
:100F100014FB0000611A0008F40000200FB41CB597
:100F20000A46521ECDE9000207A9054B6A460698FB
:100F300000F018F8009A002111701CBC5DF814FB39
:100F40000314000802E008C8121F08C1002AFAD1E1
:100F500070477047002001E001C1121F002AFBD139
:100F6000704700002DE9FF4F93B005460F4600265D
:100F7000FBE1252875D100246D1CA346A146012163
:100F8000FE4A2B78203B01FA03F0104202D00443C2
:100F90006D1CF6E728782A2816D157F804BBBBF158
:100FA000000F03DA44F40054CBF1000B44F00204C8
:100FB0006D1C10E00BEB8B0002EB400044F00204D0
:100FC00001EB000B6D1C01E06FF02F022978A1F1FD
:100FD00030000928EED928782E2818D115F8010FED
:100FE00044F004042A280BD157F8049B6D1C0EE032
:100FF00009EB890002EB400001EB00096D1C01E0E8
:101000006FF02F022978A1F130000928F0D9287853
:101010006C280ED008DC4C2816D068280CD06A2822
:1010200013D144F400140FE074280DD07A280CD1A9
:101030000AE044F4801401E044F4401469788142E9
:1010400002D16D1C04F580146D1C28786E2833D0F5
:101050001CDC632846D005DC002878D0582889D1CC
:1010600028E0A1E1642801D06928F8D10A200021F4
:10107000CDE90C01C4F30250022878D1FF1D27F0FE
:101080000707D7E9008108370F9182E0732833D032
:101090000CDC6F287ED07028E1D110210022CDE930
:1010A0000C1244F004044FF0080997E0752872D040
:1010B0007828D4D110218EE0C4F30250022804D144
:1010C0003868F117C0E900610AE0032802D13868E6
:1010D000068005E00428386801D1067000E006604B
:1010E0003F1D41E101CF8DF83C0000208DF83D000F
:1010F0000DF13C0A012003E057F804AB4FF0FF303C
:1011000061074FF000010CD501E008F101018846AC
:10111000494510DA8045F8DB1AF808100029F4D1A7
:1011200009E001E008F1010188468142FADB1AF882
:1011300008100029F6D1DDE91523ABEB080921469B
:10114000484600F048F9304400EB080606E010E19C
:101150000DE0DDE915121AF8010B9047B8F1010016
:101160008046F6D2DDE9152321464846F9E002CF54
:10117000CA1788460F92032804D10FFA88F1CA17BC
:1011800088460F92042804D14FFA88F0C117804690
:101190000F9101E01EE01BE000230F99B8EB030064
:1011A000994108DA0F99D8F1000861EB41014FF03D
:1011B0002D000F9102E0200504D52B208DF80800AA
:1011C000012003E0E00701D02020F7E7824653E04A
:1011D0000A2100E008210022CDE90C12C4F30251DB
:1011E000022907D1FF1D27F00707D7E9008208373A
:1011F0000F920BE0002357F8048B0F93032901D1C2
:101200001FFA88F8042901D108F0FF084FF0000AFE
:10121000210731D5702804D140208DF80800012025
:1012200013E0DDE90C011022504008430ED10023E9
:101230000F9988EA03005940084307D030208DF801
:10124000080028788DF8090002208246DDE90C01AB
:101250000822504008430FD100230F9988EA030069
:101260005940084301D1600706D530208DF80800A9
:101270004FF0010AA9F10109297841A0582900D0AD
:1012800044A001900CA803900DE0DDE90C2340463A
:101290000F99FEF7E6FF019B80469B5C039A521E66
:1012A000039213700F9100230F9988EA03005940AD
:1012B0000843EAD1039904A8401A00F12008600706
:1012C00002D524F4803401E04FF001090020C1452B
:1012D00001DDA9EB080000EB080151441090ABEBD5
:1012E00001001190E00306D4DDE915232146119891
:1012F00000F071F806444FF000090DF1080B07E00B
:10130000DDE915121BF809009047761C09F1010967
:10131000D145F5DBE0030CD5DDE915232146119815
:1013200000F059F8064404E0DDE91512302090473A
:10133000761C1098411E10910028F5DC08E00398F7
:1013400003990078491C0391DDE915129047761C3A
:10135000B8F10000A8F10108F1DCDDE91523214610
:10136000119800F026F806446D1C287800287FF4B8
:1013700000AE304617B0BDE8F08F0000092801002C
:1013800030313233343536373839414243444546BB
:10139000000000003031323334353637383961627D
:1013A0006364656600000000DDE915129047761C55
:1013B000DAE72DE9F0410446002517461E46880469
:1013C00006D503E039462020B0476D1C641EF9D5D0
:1013D0002846BDE8F0812DE9F0410446002530277C
:1013E00090461E46C80300D42027880406D403E094
:1013F00041463846B0476D1C641EF9D52846BDE805
:10140000F0814A68002A06D00A68531C0B601070ED
:101410004868401E48607047704700000C490968E2
:1014200001F11C00017821B1012905D002290CD15C
:1014300008E00021816008E0064941604FF4AF6197
:10144000816002E00021816000BF00BF70470000A2
:1014500058000020E420002030B5054613E0106855
:101460000478286804701068401C10602868401CCC
:1014700028601888401E1880A888401EA8808C42CA
:1014800001D1022030BDA888002802DD188800287C
:10149000E5DC188808B90020F4E70BE01068047850
:1014A0001888401E18801068401C10608C4201D1C2
:1014B0000320E7E718880028F0DC0120E2E701605C
:1014C00082807047F0B50C468E18751E0BE066786A
:1014D000277806EB0726B3B2C618B0B2984201DAF5
:1014E000461CB0B2A41CAC42F1D3AC420AD126785F
:1014F000002707EB0626B3B2C618B0B2984201DA4D
:10150000461CB0B2F0BD10B5FEF7ECFF10BD704741
:1015100000B5C82202E000F053F8521E002AFAD1AA
:1015200000BD000010B50748006800F11C04002051
:101530002070A06004A060606068FEF755FEA060A7
:1015400010BD0000580000204772656174212043DF
:101550006F6E6E6563742073756363657373210AC0
:1015600000000000014691F82000062821D1124811
:10157000007810F0010F1CD0088A104A1268528AB5
:1015800090420CDD088A0D4A1268528A801A08823D
:101590000A4A48681268528A1044486005E00A8A7C
:1015A00048681044486000200882012081F820002B
:1015B00070470020FCE70000540000205800002085
:1015C00042F2107000E0401E0028FCD1704700007D
:1015D00070B50446002510204C490860FF22002108
:1015E000104600F0CBF9002049490860002108208E
:1015F00000F0A0F90021092000F09CF900210C2046
:1016000000F098F900210D2000F094F9FE210A2045
:1016100000F090F919210B2000F08CF9FF21042033
:1016200000F088F91921052000F084F9FF21062037
:1016300000F080F91F21072000F07CF9B02138204C
:1016400000F078F93F21282000F074F9302129209A
:1016500000F070F9F921302000F06CF9F721312009
:1016600000F068F90D21C02000F064F90021C120CC
:1016700000F060F93322C221802000F07FF91221AE
:10168000C62000F057F90C21C72000F053F91521AE
:10169000C42000F04FF9DC21CA2000F04BF90521ED
:1016A000CB2000F047F92178E42000F043F961787D
:1016B000E52000F03FF9A178E22000F03BF9E17865
:1016C000E32000F037F92179E02000F033F9617967
:1016D000E12000F02FF9E42000F0C9F84FF4807108
:1016E000002000F0ACF84FF48071102000F0A7F853
:1016F0001F2000F005F9C0221B21802000F03EF9D8
:1017000004221F21802000F039F970BD100801402B
:10171000AC0000202DE9F04104460D46392000F0D0
:10172000A6F810B90020BDE8F0812A480068C1B2CF
:10173000002000F0FFF827480068C0F307210120CF
:1017400000F0F8F800213A2000F0B8F821490860CC
:1017500000213A2000F0B2F81E49096841EA002051
:101760001C49086000213A2000F0A8F80746002133
:101770003A2000F0A3F847EA00273F1F00213A2053
:1017800000F09CF8064600213A2000F097F846EA5F
:101790000026601EB84200D2671E16F0800F01D1ED
:1017A000002703E02946384600F06CF80948006835
:1017B000C1B20C2000F0BEF806480068C0F3072153
:1017C0000D2000F0B7F840221E21802000F0D6F84E
:1017D0003846A8E7AC00002070B504460D46FF214E
:1017E000022000F0A7F81921032000F0A3F8FF2041
:1017F0002044C1B2062000F09DF841F6FF102044BD
:10180000C0F30721072000F095F8002211467A2046
:1018100000F0B4F82946204600F098F808221F216D
:10182000802000F0ABF81C2000F021F810F0020F2F
:1018300004D008221F21A02000F0A0F870BD70B5D0
:1018400004460D462146D42000F074F8E9B2D620B3
:1018500000F070F8C5F30721D72000F06BF800BF47
:10186000EA2000F004F810F0010FF9D170BD10B5B6
:101870000446204600F044F82146002000F01EF8FF
:1018800010BD000070B505460C4610200A490860DE
:101890003A20FEF7D5FF05E06D1E0020FEF7D0FFD1
:1018A0002070641C002DF7D1002020701020024908
:1018B000091F086070BD00001408014070B504469F
:1018C0000D46002610200D49086005F01F0040EA73
:1018D00004063046FEF7B4FFFF20FEF7B1FF0646D0
:1018E00015F0800F03D0FF20FEF7AAFF0646102058
:1018F0000249091F0860304670BD0000140801400D
:1019000010B5044604F060000949097888420ED0F9
:1019100003221F21A02000F031F8C4F341121F213F
:10192000802000F02BF804F060000149087010BD21
:10193000A800002070B504460D462046FFF7E0FFE2
:101940002A462146402000F019F870BD70B50546C2
:101950000C461020084908607A20FEF771FF04E069
:101960006D1E2078FEF76CFF641C002DF8D110204E
:101970000149091F086070BD140801402DE9F041BC
:1019800004460D461646002710200949086005F058
:101990001F0040EA04073846FEF752FF3746384634
:1019A000FEF74EFF10200349C1F81008BDE8F08192
:1019B000140801400000014010B5044604F007017E
:1019C0007520FFF7B7FF10BD10B50F48FFF700FEF9
:1019D0000D482030A0F11A010268203800F0F4FB15
:1019E000002405E00848005D08490855601CC4B2A1
:1019F000062CF7DB40F276411420FFF720FF02208F
:101A0000FFF7DAFF10BD0000CC00002034000020FA
:101A10002DE9F04104460D460126208D10B16128C4
:101A200015D113E000BF6120208520212846FEF754
:101A3000D2FB471C3A46094904F1280000F086FC15
:101A400010B90020BDE8F08100BF00E0EDE700BF65
:101A50000026002020850220F4E70000851A0008F7
:101A600070B504460D46E1B20548FFF7C8F900BF5E
:101A700040210348FFF712F90028F9D0204670BD35
:101A80000038014070B504462546284600F044FB66
:101A90000646034604A240F6CA7104480068FFF7F0
:101AA0003DFA80B270BD0000253575004800002069
:101AB00070B5044625462C46B5F8AC00054931F80A
:101AC000103005A240F6CA7105480068FFF726FAF3
:101AD00080B270BD442000202535750A000000004A
:101AE0004800002070B5044625462C469C204059ED
:101AF0000C490968498A884205DD0A480068408A1D
:101B0000C5F8A00003E09C204059C5F8A000983516
:101B10000548AA6829680068FEF72CFBA868983D6C
:101B200080B270BD58000020480000202DE9F04F21
:101B30008BB0044626463446B6F8AC0000EB800075
:101B4000244901EBC005E88800F074FA0A9068881F
:101B500000F070FAC7B2688800F06CFA4FEA2028EB
:101B6000288800F067FA00F0FF09288800F062FA80
:101B70004FEA202AA88800F05DFA8346687E10F0BC
:101B8000100F01D0212300E02023288A08B12A2247
:101B900000E02022A97EE87ECDE90823CDE90601F8
:101BA000687E00F00F000C4951F820300A9ACDE908
:101BB00000A9CDE90287CDE904235B46074A40F638
:101BC000CA7107480068FFF7A9F980B20BB0BDE8F9
:101BD000F08F0000B4190020840000209440000819
:101BE0004800002010B50446204600F009F894F89B
:101BF0009600012802D1204600F0D4F810BD000064
:101C000070B504460125A08840B1FE2809D0B0F582
:101C1000827F7DD0B0F5947F7BD1B0E000BFFE2005
:101C2000A0802021201D00F005FC08B9002070BD17
:101C300000BF0422554904F15000FEF7F3FA40B109
:101C400000BF10205249087000BF0020A080012072
:101C5000EDE700BF4FF48270A0802021201D00F02E
:101C6000E9FB08B90020E2E700BF94F850002F28F4
:101C700008D000BF10204649087000BF0020A08097
:101C80000120D4E75120005D202803D05120005DC1
:101C90003F2806D114223F4904F18200FEF78FFA53
:101CA0000CE0201D00F04BFB411E04F1500000220F
:101CB0004254142201463230FEF781FA5120005D71
:101CC0003F2810D15620005D31280CD12021324808
:101CD000FEF706FC40213148FEF700FC08212F48A2
:101CE000FEF7FCFB2AE05120005D3F2812D1562070
:101CF000005D32280ED140212848FEF7F1FB20215B
:101D00002548FEF7EBFB08212448FEF7E7FB15E02A
:101D100034E035E05120005D3F280FD15620005DB2
:101D200033280BD108211D48FEF7DAFB20211A4881
:101D3000FEF7D4FB40211948FEF7D0FB012084F8C0
:101D400096001AE000BF4FF49470A0800A21201D75
:101D500000F070FB08B9002069E700BF08221049B5
:101D600004F15000FEF75EFA38B9201D00F0E7FAE2
:101D7000811E04F1500000224254E3E76DE7E5E7DD
:101D800000250020A080022051E70000DB58000859
:101D90005400002020590008000C014000140140AC
:101DA0003659000870B504460126B4F84C00E928FD
:101DB0006BD005DC48B1E32865D0E62868D163E044
:101DC000EF2863D0F12863D161E004F1980104F1B8
:101DD000820000F0BBF900BB04F19801304800F02C
:101DE000B5F92F4904F18200FEF713FA00BFE32092
:101DF000A4F84C002B49204600F0F6FB08B900205F
:101E000070BD00BF00BFE620A4F84C00204600F0E3
:101E1000B9FB08B90020F3E731E000BFE920A4F8DE
:101E20004C002149204600F0DFFB08B90020E7E71D
:101E300000BF2E2104F18200FEF7CDF905469DB1C9
:101E400006221A492846FEF7EDF968B90020A4F8E1
:101E50004E0000BFEF20A4F84C00204600F02AF806
:101E600008B90020CCE70AE000BFF120A4F84C003C
:101E7000204600F087FB08B90020C1E700BF102012
:101E80000B49087004E0B5E7C0E7CAE7E5E7EFE70C
:101E900000BF00260020A4F84C000220B0E700009C
:101EA0002C590008935900083F590008E45A0008CB
:101EB000540000202DE9F04104460126B4F84E00FC
:101EC00030B191287ED093287DD0B2287CD1A7E074
:101ED0009EE0D4F898000078252844D1D4F89800E2
:101EE000407821283FD1D4F89800C01CC4F8A40041
:101EF0009C200059C01EC4F8A800D4F8A40010F813
:101F0000010C3A2812D1D4F8A410481C04F198010D
:101F100000F01CF900BF9120A4F84E00204600F00C
:101F200031FB10B90020BDE8F08111E000BF932023
:101F3000A4F84E00D4F8A40000F0D0F80746D4F876
:101F4000A48041462046B84708B90020EBE700BF0F
:101F5000204600F0D7F99834E06820602169983C69
:101F60009C20015154E09C20005931490968498A5C
:101F7000884205DD2E480068408AC4F8A00003E0CE
:101F80009C200059C4F8A000D4F8980000782528B7
:101F900007D1D4F89810481C2521FEF71CF90546F6
:101FA00005E02521D4F89800FEF715F90546BDB1E6
:101FB000D4F89800A84213D054F8980F281AA060BB
:101FC000A06802E02AE02AE02BE0983C1849096862
:101FD000498A884204DB16480068408AC4F8A00099
:101FE00000BFB220A4F84E00204600F0FBFB08B969
:101FF000002098E700BF54F8980FA168084444F8FF
:1020000098099C200059D4F8A010411A9C20015135
:102010009C20005900283FF75CAF02E07EE789E78B
:10202000E2E700BF00260020A4F84E0002207AE775
:10203000580000200146080240EA212080B2704783
:1020400010B52448006800F11C042348007810F003
:10205000100F3ED12048007810F0200F39D11E48D3
:10206000007810F0800F34D11B48007810F0400F3A
:1020700016D0312204F15001201D00F0ADF93122BB
:1020800004F1500104F1280000F0A6F90020A4F8A2
:102090004C0084F8960020702046FFF7A3FD18E05E
:1020A000A4B10D48007810F0080F09D02078401C2A
:1020B00020702078142805DB20200749087001E0F3
:1020C000002020702046FFF78DFD02E0202002490D
:1020D000087010BD580000205400002070B5044660
:1020E0000B4D0FE029680868FEF77EF80646296860
:1020F000324608682146FEF795F810B9286840680E
:1021000070BD2D1D28680028ECD10248F8E70000BA
:10211000740000202723000870B504460025094EEE
:102120000BE02046716800F037F818B9064830F81F
:10213000150070BD681C85B23668002EF1D10020F4
:10214000F7E70000B0580008D02000202DE9F0414A
:1021500004460F4600250E4E15E02046716800F03B
:102160001BF868B9B0683860F0687860094830F8E2
:102170001500401C074921F815000120BDE8F08139
:10218000681C85B23668002EE7D10020F6E7000013
:10219000B0580008D020002010B50246002300BF30
:1021A000C85C28B1D05C0D2802D0D05C0A2801D1CF
:1021B000002010BDD05CCC5CA04201D00120F8E72B
:1021C000581CC3B2ECE7000030B500230A4C227063
:1021D00005E0CC5C084D1335EC545C1CE3B2042BD9
:1021E000F7DB002305E0C45C034D0D35EC545C1CAB
:1021F000E3B2062BF7DB30BDB000002010B5FEF7D0
:10220000C7F9FEF7CFFAFEF77FF94BF2040000F0B2
:1022100099FE4FF4A04000F095FE01E0FEF7F4FDBA
:10222000FCE7000070B504460E460125208D10B174
:10223000C3281CD11AE00020A4F8AC0011E000BFB4
:10224000C320208522460D4904F1280000F07EF8C5
:1022500008B9002070BD00BFB4F8AC00401CA4F861
:10226000AC00B4F8AC001628E9D300E0EAE700BF00
:102270000025002020850220ECE70000B11A0008AC
:1022800010B51A48006800F11C04207818B92046DF
:10229000FEF7FCFB29E0207801280CD114480088C7
:1022A000012804D113480068007841281DD000207F
:1022B0002070A06019E02078022816D10C48008810
:1022C00004280AD104220B4801680BA0FDF794FFF3
:1022D00018B900202070A06007E005480088084970
:1022E0000860084660600420A06010BD580000200F
:1022F000500000204800002073746F700000000040
:10230000C800002070B5044654F8A40F0A21FDF758
:1023100062FF451CD4E90010691A89B2401A606056
:1023200044F8A45970BD02460B460121108D00B936
:1023300000BF00BF00210020108502207047014629
:10234000088BCA69101A80B2704700002DE9F0416D
:1023500004460D4616460127608810B1EE2830D19C
:102360002EE02DB900BF002060800120BDE8F08183
:102370003046A8472082164800686060002084F834
:10238000200000BF1348007810F0040F01D0304641
:10239000A84700BFEE2060802046FFF7E3F88046A4
:1023A000204600F0C7F818EA000F01D10020DDE751
:1023B00000BF208A0028E5DC002084F8200000E02F
:1023C000EAE700BF0027002060800220CEE700007F
:1023D000480000205400002070B504460D46164603
:1023E000002084F820006082E560E661B2B22946F0
:1023F00004F11400FFF763F800202080608070BDB6
:102400000146488A002801DD0120704791F820002C
:10241000022804D1032081F820000020F5E70448B9
:10242000007810F0020F01D00120EEE70020ECE769
:102430005400002070B504460D460126608820B186
:10244000A0F580701B3835D133E0E06982B204F129
:102450001400E168FFF733F800BF608A98B900BF45
:1024600040F21B1060802046FFF7CAFF08B9002029
:1024700070BD00BF022084F8200011480068A060F1
:1024800010480088608204F1120304F10802294612
:10249000981CFEF7E1FF10F0020FDED02046FFF798
:1024A0004EFF28B9002084F8200000BF6080DFE7DD
:1024B00000E0D8E700BF0026002060800220D7E7B8
:1024C00048000020500000202DE9F04104460D4650
:1024D00016460127608810B1CF2825D123E02EB9F8
:1024E00000BF002060800120BDE8F0816560268289
:1024F000002084F820000FE000BFCF20608020463D
:10250000FFF730F88046204600F014F818EA000F74
:1025100001D10020E8E700BF208A0028ECDC002081
:1025200084F8200000E0EAE700BF00270020608078
:102530000220D9E710B5044694F82000062804D1FB
:102540000E48007810F0040F15D0208A0C49096855
:10255000498A884206DD0A4A1268518A606801F099
:102560000BFD03E0218A606801F006FD062084F877
:102570002000012010BD0020FCE7000054000020D6
:102580005800002070B504460125208D10B1652843
:1025900021D11FE000BF00BF6520208522461149E0
:1025A00004F12800FFF7D2FE08B9002070BD00BF7B
:1025B0009C200059D4F8A010411A9C20015154F8D5
:1025C000980FA168084444F898099C2000590028F5
:1025D000E1DC00E0E2E700BF0025002020850220CA
:1025E000E4E70000E51A00082DE9F04104460D4635
:1025F0000127208DCC286FD007DC78B1C3286CD0A0
:10260000C7286BD0CA286AD1C6E0CE2868D0D028A7
:1026100067D0D2287CD0D428F5D1C2E000BFC32037
:1026200020852846FDF7E0FD80460246294604F154
:102630002800FFF749FF10B90020BDE8F08100BF76
:102640002E2104F18200FDF7FCFD064686B900BF8D
:10265000C72020855648FDF7C7FD804602465449ED
:1026600004F12800FFF730FF08B90020E5E790E00B
:10267000052231464F48FDF7D5FD28B106223146E7
:102680004D48FDF7CFFD80B900BFCA2020854B48DB
:10269000FDF7AAFD80460246484904F12800FFF7ED
:1026A00013FF08B90020C8E773E00422314644480C
:1026B000FDF7B8FDB0B900BFCC2020854148FDF73B
:1026C00093FD804602463F4904F12800FFF7FCFED7
:1026D00008B90020B1E75CE05FE05BE05BE061E04F
:1026E0005CE05CE0042231463748FDF79BFD88B989
:1026F00000BFCE2020853548FDF776FD8046024696
:10270000324904F12800FFF7DFFE10B9002094E7FA
:1027100046E03EE0042231462D48FDF783FD80B9B6
:1027200000BFD02020852B48FDF75EFD8046024685
:10273000284904F12800FFF7C7FE08B900207CE70C
:1027400027E0042231462448FDF76CFD80B900BF24
:10275000D22020852148FDF747FD804602461F49CB
:1027600004F12800FFF7B0FE08B9002065E710E08B
:1027700000BFD42020851A48FDF736FD804602466A
:10278000174904F12800FFF79FFE08B9002054E71D
:1027900000BF07E045E75DE779E78FE7ABE7C2E712
:1027A000D8E7E8E700BF002700202085022044E7A3
:1027B000B35A0008DE5A0008E45A00080B5A000811
:1027C000F05A0008275A0008F55A00085E5A000817
:1027D000FA5A00087A5A0008FF5A0008965A000868
:1027E000EE59000870B504460125208D10B17228FD
:1027F00011D10FE000BF7220208504F12800D4F829
:10280000A020D4F89810FFF75FFE08B9002070BD33
:1028100000BF00E0F1E700BF002500202085022076
:10282000F5E7000010B50648006800F11C04A06838
:10283000002803DDD4E9010101F09EFB10BD00007A
:102840005800002010B5FFF7BFF810BD10B50349C0
:1028500040F2DC50FEF75EFF80B210BDB0090020F0
:1028600010B5034903480088FEF7B6FF10BD00000D
:10287000B00900205000002010B52348007810F067
:10288000200F01D0FEF7C8FD1F48007810F0800F20
:1028900001D000F08BF81C48007810F0100F01D028
:1028A000FEF735FE1848007810F0400F01D0FEF713
:1028B00039FE1548007810F0010F01D0FEF7AEFD8B
:1028C0001148007810F0020F01D0FFF7D9FC0E4834
:1028D000007810F0040F13D10B48007810F0020FAD
:1028E0000ED10948007810F0010F09D10648007890
:1028F00010F0400F04D10448007810F0080F01D008
:10290000FFF790FF10BD00005400002010B50948EB
:1029100000688088B0F5A04F04D0A0F5304004389E
:1029200006D102E0FFF78CFB02E0FFF7A5FF00BF36
:1029300000BF10BD5800002070B504460E460125AA
:10294000208D10B1AB2827D125E00020A4F8AC00E1
:102950001CE0B4F8AC0000EB8000124901EBC000B1
:10296000407E10F00F0F0CD000BFAB202085224618
:102970000D4904F12800FFF7E9FC08B9002070BDFB
:1029800000BFB4F8AC00401CA4F8AC00B4F8AC0034
:102990002828DEDB00E0EAE700BF002500202085D4
:1029A0000220ECE7B41900202D1B0008704710B579
:1029B0000446FEF7A8FD2168401A6168884201DBE1
:1029C000012010BD0020FCE7D0E900121144016095
:1029D000704770B505460C466C60FEF794FD2860A4
:1029E00070BD0000C2780A44194BDA70827802EB9D
:1029F00021229A7042785A7002781A701A46927898
:102A0000B2EB212F0ADA1A465278521C5A701A4633
:102A100052781AB91A461278521C1A700C4AD27897
:102A2000CBB29A4212DA0A4A9278521C084B9A7038
:102A30001A46927852B91A465278521C5A701A465F
:102A400052781AB91A461278521C1A707047000050
:102A50006400002010B5044621460D480068083087
:102A6000FFF7C0FF0B480078094909680872094858
:102A70004178074800684172064881780448006838
:102A800081720448C17802480068C17210BD00001C
:102A9000580000206400002010B5364800882A281D
:102AA00003D200203349088010BD0020314908803E
:102AB0003148808AB0F5807F03D0B0F5007F56D1D1
:102AC00043E02D48C08C2D49098888423CD12A48D2
:102AD000008D2A494988884236D127491631881DF8
:102AE00000F050F94FF40070234988820622163115
:102AF00001F10A00FDF73EFB062221491E4816306F
:102B0000FDF738FB06221E491B48801DFDF732FBEE
:102B10000622194920311848FDF72CFB1648808BF6
:102B20001549C8840846C18B01851448008812499C
:102B30008883124841881048C1834FF4C1600E4910
:102B400088812A200B49088011E00B48C08C0B4972
:102B5000098888420AD10848008D08494988884276
:102B600004D105491631881D00F00CF900BF00BFE3
:102B70009AE7000050000020B00900203A00002031
:102B80003400002010B55D48C08B5D49098888423B
:102B90000CD15A48008C5A494988884206D10622ED
:102BA0005749891F5548FDF7E5FA98E05348C18B0E
:102BB00054480088014054480088524A1288104006
:102BC00081420BD14D48018C4E48408801404E480F
:102BD00040884C4A52881040814208D000BF4B4880
:102BE00000884B49088049484088488008E000BF79
:102BF0004248C08B464908804048008C488000BF4E
:102C000000204349091D087019E04148001D007863
:102C100000EB40003F4901EB80043D4800882188DB
:102C2000884205D13A4840886188884200D10BE04B
:102C30003748001D0078401C3549091D087034488C
:102C4000001D00780828E0DB00BF3148001D007837
:102C500008283FD1FF2206212848FDF79DFA0621CA
:102C600026482030FDF79FFA06222B492348801D75
:102C7000FDF780FA0622284920481630FDF77AFA37
:102C800000BF234800881D49C884214841881B484B
:102C9000018500BF00BF1C480088184988831A4876
:102CA00041881648C18300BF4FF480701349888261
:102CB000C88108200882062088740420C8744FF454
:102CC000C160888101F13600144908602A20144946
:102CD000088010BD0622211D0848FDF74BFA062288
:102CE0000D490648801DFDF745FA082003498881F3
:102CF0000B4800880E300A490880EAE7B009002036
:102D00001E400008420000203A0000203E00002043
:102D10006C000020702000203400002048000020BB
:102D20005000002015490978491C144A11700021EF
:102D3000921E11701BE01149891E097801EB4101B7
:102D40000F4A02EB810001884288114308D0817A42
:102D50000A4A1278511A782902DB00210180418049
:102D60000649891E0978491C044A921E11700349BC
:102D7000891E09780829DEDB7047000072000020F8
:102D80007020002070B504460E46002047490870A8
:102D900021E04648007800EB4000454901EB800502
:102DA000288898B1688888B12088298888420DD100
:102DB00060886988884209D106223146281DFDF7BE
:102DC000D9F93A48801C0078A87270BD374800785D
:102DD000401C36490870354800780828D9DB0020A7
:102DE0003249087010E03148007800EB400030496B
:102DF00001EB8005288810B9688800B908E02B48E5
:102E00000078401C29490870284800780828EADB27
:102E100000BF2648007808283AD100202349C91C61
:102E20000870891E0870491E087021E01F4800784C
:102E300000EB40001E4901EB8005A87A1B49891C64
:102E40000978081A1949C91C097888420BDDA87A43
:102E50001649891C0978081A1449C91C0870C81E2B
:102E60000078891E087011480078401C0F490870CE
:102E70000E4800780828D9DB0C48401C00780B4924
:102E800008700846007800EB4000094901EB800516
:102E9000208828806088688006223146281DFDF73A
:102EA00069F90248801C0078A8728EE77000002043
:102EB000702000200020174908700AE00020164901
:102EC000144A127821F8120012480078401C114967
:102ED0000870104800782828F0DB00200D490870A1
:102EE0000DE000200B49097801EB81010B4A02EB50
:102EF000C101487607480078401C0649087005481B
:102F000000782828EDDB4FF480600249891F088093
:102F10007047000068000020F41F0020B419002052
:102F200010B5142206490020FEF7CCFA044614B965
:102F30004FF6FF7002E02046FFF77CF880B210BD2C
:102F4000BE09002000210C4A117010E00B490A4A0A
:102F5000127831F8121029B90849074A127821F875
:102F60001200704704490978491C034A117002494C
:102F700009782829EADBF4E768000020F41F002024
:102F800010B50446214602A0FDF7B8FF10BD0000B1
:102F9000754950206C6F67206D6573736167653A82
:102FA0002025730D0A00000070B50546FE48046830
:102FB000FE48FF490860FF490860032D0ED1607E7E
:102FC00000F00F00032807D1208A28B90820FA4909
:102FD0000870FFF79BFCFDE300F0BBBF022D71D131
:102FE000F648C078401C10F0FF00F449C87011D1B9
:102FF00008468078401C10F0FF0088700AD108460F
:103000004078401C10F0FF00487003D1084600785B
:10301000401C08700020EA490880EA490880607E68
:10302000072802D0607E052808D1A07E401CA0762B
:10303000A07E782861D1002060765EE0607E002866
:103040005BD0208A00284DD0A07E411EA1760028AA
:1030500053D1E07E082808D0607E022802D0607E2E
:10306000012810D1E07E05280DD100206076802057
:10307000D1490870FFF74AFC1421CC48363880F853
:103080002F1000F0D3BEE07E042801DD042100E013
:10309000E17E03208840A076E07E401CE076CA48AE
:1030A000C08C401C81B2C848C184607E00F00F0013
:1030B000092822D2DFE800F02105070D1321142191
:1030C000150066E31AE00021B848363880F82F1062
:1030D00064E30420B8490870FFF718FCE5E300BF7B
:1030E00000BFE3E3607E00F00F00032805D1082055
:1030F000B1490870FFF70AFC6DE76DE7B2484088F8
:10310000401CB1494880A9483638807B45280BD0FF
:1031100008460088401C08800846C088401CC880BB
:10312000AAA0FFF72DFF57E7A0483638417C007C66
:1031300001EB0020A2490988884208DC9B48363808
:10314000417C007C01EB00209D49088003E0A9A0A0
:10315000FFF716FF40E795483638007D10F03F0F27
:1031600003D192483638407D60B197480088401CB2
:103170009549088008468089401C8881A9A0FFF7EE
:10318000FFFE29E7AD480088AD490988884205D18E
:10319000AA484088AA494988884213D083483638CB
:1031A000C08BA6490988884206D180483638008CF1
:1031B000A2494988884205D083480088401C82493A
:1031C000088009E7FFF7ACFEA0F57F41FF390CD07E
:1031D0007D480088401C7C4908800846C089401C06
:1031E000C88198A0FFF7CCFEF6E670483638C07D5F
:1031F000062800D162E06D483638C07D01280CD029
:1032000071480088401C704908800846008A401CAC
:10321000088291A0FFF7B4FEDEE66B48808A401C6E
:1032200081B2694881826148363890F822000828C6
:103230000ED06548408A401C634948820846008B8E
:10324000401C81B2604801838AA0FFF799FEC3E663
:1032500000215648363880F82210808C4FF6F771DE
:10326000884208DB51483638808C093081B24F489B
:103270003638818407E04D483638808C083081B27A
:103280004A483638818400BF48483638418BC1836C
:10329000818B018400BF00BF6848018843483638ED
:1032A00041836648418841483638818300BF46489B
:1032B000C08A401C81B24448C182F3E34248808BFB
:1032C000401C81B24048818300F06EFEA0F57F4132
:1032D000FF390ED03C48408B401C3B494883084690
:1032E000008C401C81B23848018468A0FFF748FE7A
:1032F00072E66B4C1BE0607EC0B12C483638808C87
:10330000A188884212D129483638408CE188884209
:103310000CD126483638408B2188884206D1234874
:103320003638808B6188884200D154E228345D4869
:103330008442E0D91D48363890F82F0000F03F0055
:10334000022800D028E019483638808C1B490C31FF
:1033500008800020891E087012E0534817490A317E
:10336000097830F8110015490C310988884200D1DC
:1033700027E112480A300078401C10490A310870D1
:103380000E480A3000782828E7DB0F48408D401CA3
:1033900081B20D48418500BF0448363890F82F00AF
:1033A00010F0040F82E0000058000020E609002021
:1033B000480000204C000020540000205E00002047
:1033C00050000020520000204420002069703A2064
:1033D000696E76616C69642076657273696F6E20C0
:1033E0006F7220686561646572206C656E677468D1
:1033F0002E00000069703A207061636B6574207361
:10340000686F72746572207468616E207265706F87
:103410007274656420696E20495020686561646536
:10342000722E000069703A20667261676D656E7475
:103430002064726F707065642E0000003A000020F6
:103440001440000869703A20626164206368656313
:103450006B73756D2E00000069703A206E6569749B
:1034600068657220746370206E6F722069636D707E
:103470002E00000069636D703A206E6F74206963DE
:103480006D70206563686F2E000000007463703AF1
:103490002062616420636865636B73756D2E000044
:1034A000B4190020CC1F0020F41F002000D093E5A9
:1034B000FF48808C401C81B2FD4881841421FD4866
:1034C00080F82F102820FC4908805021F94880F806
:1034D0002E1090F82900F9490870F64890F82D1040
:1034E00080F82910F5480178F24880F82D1090F8FE
:1034F0002800F2490870EF4890F82C1080F8281046
:10350000EE480178EB4880F82C1090F82700EB4942
:103510000870E84890F82B1080F82710E7480178E9
:10352000E44880F82B1090F82600E4490870E14840
:1035300090F82A1080F82610E0480178DD4880F8DD
:103540002A1090F82D00401C10F0FF01D94880F897
:103550002D1018D190F82C00401C10F0FF01D54818
:1035600080F82C100FD190F82B00401C10F0FF01B8
:10357000D04880F82B1006D190F82A00401CC1B228
:10358000CC4880F82A10CB48408CCC49891C088054
:10359000C848818C4184C948801C0188C548818401
:1035A00000BF418BC183818B018400BF00BFC44831
:1035B0000188C0484183C2484188BE48818300BF1A
:1035C000F0E300240020BD49087030E0BB480078DB
:1035D00000EB8000BB4901EBC000407E30B9B7482A
:1035E000007800EB800001EBC00424E0B3480078D1
:1035F00000EB8000B34901EBC000407E072811D1E9
:103600004CB1AE48007800EB800001EBC000807E3A
:10361000A17E884206DDA948007800EB8000A94918
:1036200001EBC004A5480078401CA4490870A348D9
:1036300000782828CADB00BF4CB99D48008D401C8B
:1036400081B29B480185A0A0FFF79AFCC4E4A7487B
:1036500004600320A07620760020A0750420E07589
:103660000020E0769348808CA0809248408CE080D7
:1036700000BF9048408B20808E48808B608000BFC8
:10368000012060768D480A38007820738B480A380C
:10369000417861738178A173C178E1730120208240
:1036A000844890F82910E17290F82810A17290F8DF
:1036B0002710617290F8260020720120FFF7CAF9E6
:1036C0007C4890F82E0000F0F000502860DD0020CB
:1036D0007A49087050E07948007836307549085CBE
:1036E0007649491C08700846007800B94FE07348D5
:1036F000401C0078012805D170480078401C6F49B3
:10370000087039E06D48401C0078022823D16B48CE
:10371000007837306749085C04281CD16748007876
:103720003930095C654800783830624A105C41EAFB
:1037300000206249891C08800846008840F6CA714A
:10374000884201DD084602E05C48801C008880B2A7
:103750006082A0821BE05948007837305549085CE8
:1037600000B914E05548007837305249085C534995
:1037700009780844514908704E4890F82E000521F8
:10378000C1EB20104D490978B1EB800FA3DB00BFDE
:1037900000BF1021474880F82F1000BF454890F81F
:1037A0002F0040F00201434880F82F10022180F8DA
:1037B0003610042180F837100F2180F83810CA2104
:1037C00080F839102C203C4908806021394880F865
:1037D0002E1034E340E2454804600020444908705C
:1037E000344890F82F0010F0040F0AD000206076C3
:1037F00040A0FFF7C5FB20203D490870FFF786F881
:10380000A7E32C4890F82E00001180002B49087087
:10381000294800880978401A143827490880607EB2
:1038200000F00F00022806D1224890F82F0000F087
:103830003F00122822D020480088002805DC1D48BF
:1038400090F82F0010F0030F18D01A4890F82600B7
:10385000217A884211D1174890F82710607A814266
:103860000BD1144890F82810A07A814205D1114854
:1038700090F82910E07A814200D0D2E20D4890F809
:103880002F0010F0100F7ED0208A00287BD0218AD4
:1038900004F10C00FFF7A6F8064890F82A001F492B
:1038A000097888426FD103483AE015E275E10000DB
:1038B00044200020B00900205000002068000020B3
:1038C0003A000020B41900207463703A20666F75C6
:1038D0006E64206E6F20756E7573656420636F6E05
:1038E0006E656374696F6E732E00000058000020CF
:1038F000540000207463703A20676F7420726573FF
:1039000065742C2061626F7274696E6720636F6EDC
:103910006E656374696F6E2E000000006400002005
:1039200090F82B00FD49497888423ED1FC4890F838
:103930002C00FA498978884237D1F94890F82D004F
:10394000F649C978884230D1F44800782073F348AA
:10395000417861738178A173C178E173E07EE8B941
:10396000217EA27E891A48B2A17DA0EBE10148B276
:10397000A17D0144A175002801DA414248B2E17DF0
:10398000A0EBA10100E010E048B2E17D0144E17547
:10399000E17DA27D01EBE201217600BF0120E1493A
:1039A0000870207EA07600202082607E00F00F004C
:1039B000092876D2DFE800F0750525C6FAF9F8F790
:1039C000F600D848007810F0010F19D00320607677
:1039D0004020D449087000202082D3480088002865
:1039E00008DD0846007840F002000870CE480088E4
:1039F000FFF730F80020CD490880FEF787FF2BE164
:103A0000A7E2C848007810F0010F7ED0C44890F8B3
:103A10002F0000F03F00122877D1C14890F82E0007
:103A200000F0F000502862DD0020C149087052E02B
:103A3000BF4800783630BA49085CBD49491C087057
:103A40000846007800B951E0B948401C00780128C8
:103A500005D1B7480078401CB54908703BE0B44830
:103A6000401C0078022825D1B14800783730AC4995
:103A7000085C04281ED1AE4800783930095CAC4897
:103A800000783830A64A105C41EA0020A849891C19
:103A900008800846008840F6CA71884203DD08465F
:103AA00004E0BCE14CE2A248801C008880B2608245
:103AB000A0821BE09E48007837309949085C00B925
:103AC00014E09B48007837309549085C984909789C
:103AD000084497490870924890F82E000521C1EBE0
:103AE000201093490978B1EB800FA1DB00BF0320C0
:103AF00060768B4890F826002072894890F827104D
:103B0000617290F82810A17200E011E090F829107D
:103B1000E1720120FEF79EFF4220824908700020DA
:103B200020828149088081490880FEF7EFFE93E0FA
:103B300020207C490870FEF7E9FE00207D490968D5
:103B4000487629E4764890F82F0010F0010F2ED027
:103B5000607E10F0100F2AD1208A00B1F9E172497D
:103B60000988491C88B2FEF775FF6E48007840F05E
:103B700010006C4908706C480088002804DD084675
:103B8000007840F002000870FEF7C0FE012020829D
:103B9000082060760020E07600BF1121604880F8A0
:103BA0002F1043E1CDE02FE12FE10CE1D6E05C489E
:103BB00090F82F0010F0200F17D0594890F83510CA
:103BC00090F8340041EA00205B49096808445A49EA
:103BD0000860534890F8351090F8340041EA00200E
:103BE00051490988081A504908804F480088002820
:103BF0000DDD607E10F0100F09D14A48007840F0CA
:103C000002004849087048480088FEF723FF4448EE
:103C100090F8311090F8300001EB00204449891CE5
:103C20000880A08A0988884203DB4148801C0088FC
:103C300018B9A08A3E49891C08803D48801C00882C
:103C400060823848007810F0030F79D0002037499F
:103C50000880FEF75BFE00BF3248007810F0200FAE
:103C600008D0002031490880607614212C4880F863
:103C70002F10DBE02B48007810F0100F0DD0002043
:103C80002A49088001202082042060760020E07606
:103C90001121234880F82F10C8E02448008800280C
:103CA00017DD2048007810F0010F01D0002020829D
:103CB000208A58B9608A1D490988884202DA608AD8
:103CC0001A49088019480088208202E0208A174992
:103CD00008800020E07600BF184800681649086098
:103CE0001248008800280BDD208A002808DD208A81
:103CF00028300D4908801821094880F82F1099E0D4
:103D00000848007810F0020F1AD0282006490880D1
:103D10001021034880F82F108CE011E0640000208F
:103D2000B009002054000020500000205200002064
:103D30006800002058000020480000204C000020AF
:103D400007E18748007810F0010F06D00020607668
:103D5000102083490870FEF7D9FD60E08148008893
:103D6000002803DD7F480088FEF774FE7E4890F847
:103D70002F0010F0010F16D07948007810F0010FD5
:103D800005D0072060760020A076208201E0062082
:103D900060760120FEF75EFE102071490870FEF784
:103DA000B5FD3EE08DE06E48007810F0010F04D0C4
:103DB0000520607600202082CBE06A480088002839
:103DC00000DD2EE0C5E067480088002803DD654877
:103DD0000088FEF73FFE644890F82F0010F0010FB6
:103DE0000CD0072060760020A0760120FEF732FE7E
:103DF00010205B490870FEF789FD12E059480088E1
:103E0000002800DD0DE0A4E00BE05548007810F03C
:103E1000010F03D0072060760020A07600BF00BF0E
:103E200097E01021504880F82F1000BF28204D49FE
:103E3000088000BF50214C4880F82E1000BF217A26
:103E4000494880F82A10617A80F82B10A17A80F80E
:103E50002C10E17A80F82D10217B80F82610617BF0
:103E600080F82710A17B80F82810E17B80F82910CA
:103E70000621C175A1884184E188818400BF3B4847
:103E8000018839484183394841883748818300BFD8
:103E900000BF2188C1836188018400BF607E10F06B
:103EA000100F06D00021304880F8311080F8301013
:103EB00006E00F212C4880F83010CA2180F831101C
:103EC00000BF4021284881752648008801122648F5
:103ED000017424480088C1B223484174002180F84D
:103EE000351080F83410418600F05EF8C04381B28E
:103EF0001D48418645201C49887300211A48C1731A
:103F0000417501751A480088401C19490880084607
:103F1000008801121448817415480088C1B2124803
:103F2000C17400210183FEF7FBFFC04381B20E483C
:103F300001831048C08B401C81B20E48C18300BF72
:103F40000C488088401C0B49888000200449087078
:103F500070BD00200349088001490870F8E700009F
:103F60005400002050000020B00900203A0000203A
:103F70005C0000204420002070B505460C46002C53
:103F80000CDD07490C8007480068854206D00846CA
:103F90000288294603480068FCF7ECF870BD000071
:103FA000520000204C00002010B5062000F002F85E
:103FB00010BD000070B504460F48417C007C01EB49
:103FC0000020143885B2281986B208220A491A310D
:103FD0003046FDF777FA06462A4607492231304631
:103FE000FDF770FA064616B94FF6FF7002E030464C
:103FF000FEF720F880B270BDB009002000A24A048C
:1040000000A24A0400A24A040051250200A24A0468
:10401000FFFFFFFF00000000FFFFFFFFFFFFFFFFAC
:10402000FFFF00001E5B0008111A00080E5B00086D
:1040300039290008295B000825220008434C4F530A
:1040400045440053594E2D524356440053594E2D6A
:1040500053454E540045535441424C4953484544FE
:104060000046494E2D574149542D310046494E2DA9
:10407000574149542D3200434C4F53494E47005449
:10408000494D452D57414954004C4153542D41430E
:104090004B0000003C74723E3C74643E25643C2F2F
:1040A00074643E3C74643E25752E25752E25752E50
:1040B00025753A25753C2F74643E3C74643E257327
:1040C0003C2F74643E3C74643E25753C2F74643E02
:1040D0003C74643E25753C2F74643E3C74643E25FC
:1040E000632025633C2F74643E3C2F74723E0D0A9E
:1040F000000000002F70726F6365737365732E7319
:1041000068746D6C0025213A202F686561646572C2
:104110002E68746D6C0A3C68313E53797374656D1A
:104120002070726F6365737365733C2F68313E3C1A
:1041300062723E3C7461626C652077696474683DAC
:104140002231303025223E0A3C74723E3C74683E77
:1041500049443C2F74683E3C74683E4E616D653C3A
:104160002F74683E3C74683E5072696F726974794E
:104170003C2F74683E3C74683E506F6C6C206861E4
:104180006E646C65723C2F74683E3C74683E457684
:10419000656E742068616E646C65723C2F74683E55
:1041A0003C74683E50726F6373746174653C2F7425
:1041B000683E3C2F74723E0A25212070726F636541
:1041C000737365730A25213A202F666F6F746572C9
:1041D0002E68746D6C002F3430342E68746D6C0052
:1041E0003C68746D6C3E0A20203C626F64792062EA
:1041F00067636F6C6F723D227768697465223E0A4F
:10420000202020203C63656E7465723E0A202020C9
:104210002020203C68313E343034202D2066696CEB
:1042200065206E6F7420666F756E643C2F68313E3A
:104230000A2020202020203C68333E476F203C612C
:1042400020687265663D222F223E686572653C2FAC
:10425000613E20696E73746561642E3C2F68333E45
:104260000A202020203C2F63656E7465723E0A2070
:10427000203C2F626F64793E0A3C2F68746D6C3E5F
:10428000002F66696C65732E7368746D6C00252150
:104290003A202F6865616465722E68746D6C0A3C03
:1042A00068313E46696C6520737461746973746922
:1042B00063733C2F68313E0A3C63656E7465723EE1
:1042C0000A3C7461626C652077696474683D2233CE
:1042D0003030223E0A3C74723E3C74643E3C6120A5
:1042E000687265663D222F696E6465782E68746D0C
:1042F0006C223E2F696E6465782E68746D6C3C2F5D
:10430000613E3C2F74643E0A3C74643E2521206665
:10431000696C652D7374617473202F696E646578A0
:104320002E68746D6C0A3C2F74643E3C74643E3C91
:10433000696D67207372633D222F666164652E701C
:104340006E6722206865696768743D31302077693F
:104350006474683D25212066696C652D73746174F1
:1043600073202F696E6465782E68746D6C0A3E2028
:104370003C2F74643E3C2F74723E0A3C74723E3C87
:1043800074643E3C6120687265663D222F66696CEC
:1043900065732E7368746D6C223E2F66696C65734D
:1043A0002E7368746D6C3C2F613E3C2F74643E0A22
:1043B0003C74643E25212066696C652D73746174BC
:1043C00073202F66696C65732E7368746D6C0A3C7C
:1043D0002F74643E3C74643E3C696D672073726365
:1043E0003D222F666164652E706E672220686569C4
:1043F0006768743D31302077696474683D252120F9
:1044000066696C652D7374617473202F66696C65C1
:10441000732E7368746D6C0A3E203C2F74643E3CAE
:104420002F74723E0A3C74723E3C74643E3C6120C0
:10443000687265663D222F7463702E7368746D6CAC
:10444000223E2F7463702E7368746D6C3C2F613E36
:104450003C2F74643E0A3C74643E25212066696CDE
:10446000652D7374617473202F7463702E73687478
:104470006D6C0A3C2F74643E3C74643E3C696D670D
:10448000207372633D222F666164652E706E672211
:10449000206865696768743D3130207769647468A5
:1044A0003D25212066696C652D7374617473202F1E
:1044B0007463702E7368746D6C0A3E203C2F7464B4
:1044C0003E3C2F74723E0A3C74723E3C74643E3C27
:1044D0006120687265663D222F73746174732E7358
:1044E00068746D6C223E2F73746174732E736874DC
:1044F0006D6C3C2F613E3C2F74643E0A3C74643EFC
:1045000025212066696C652D7374617473202F7387
:10451000746174732E7368746D6C0A3C2F74643EFE
:104520003C74643E3C696D67207372633D222F6664
:104530006164652E706E6722206865696768743DE6
:1045400031302077696474683D25212066696C6587
:104550002D7374617473202F73746174732E736878
:10456000746D6C0A3E203C2F74643E3C2F74723E86
:104570000A3C74723E3C74643E3C6120687265661D
:104580003D222F7374796C652E637373223E2F73F3
:1045900074796C652E6373733C2F613E3C2F746499
:1045A0003E0A3C74643E25212066696C652D737457
:1045B000617473202F7374796C652E6373730A3C76
:1045C0002F74643E3C74643E3C696D672073726373
:1045D0003D222F666164652E706E672220686569D2
:1045E0006768743D31302077696474683D25212007
:1045F00066696C652D7374617473202F7374796CA4
:10460000652E6373730A3E203C2F74643E3C2F7406
:10461000723E0A3C74723E3C74643E3C6120687297
:1046200065663D222F3430342E68746D6C223E2F27
:104630003430342E68746D6C3C2F613E3C2F7464B2
:104640003E0A3C74643E25212066696C652D7374B6
:10465000617473202F3430342E68746D6C0A3C2FD3
:1046600074643E3C74643E3C696D67207372633DC4
:10467000222F666164652E706E6722206865696707
:1046800068743D31302077696474683D2521206667
:10469000696C652D7374617473202F3430342E6807
:1046A000746D6C0A3E203C2F74643E3C2F74723E45
:1046B0000A3C74723E3C74643E3C612068726566DC
:1046C0003D222F666164652E706E67223E2F666103
:1046D00064652E706E673C2F613E3C2F74643E0A09
:1046E0003C74643E25212066696C652D7374617489
:1046F00073202F666164652E706E670A3C2F7464A8
:104700003E3C74643E3C696D67207372633D222FAA
:10471000666164652E706E672220686569676874DB
:104720003D31302077696474683D25212066696CCD
:10473000652D7374617473202F666164652E706ECD
:10474000670A3E203C2F74643E3C2F74723E0A3C44
:104750002F7461626C653E0A3C2F63656E746572EE
:104760003E0A25213A202F666F6F7465722E687499
:104770006D6C0A002F666F6F7465722E68746D6CB5
:104780000020203C2F626F64793E0A3C2F68746DD4
:104790006C3E002F6865616465722E68746D6C00F4
:1047A0003C21444F43545950452048544D4C2050CF
:1047B00055424C494320222D2F2F5733432F2F444E
:1047C00054442048544D4C20342E303120547261D2
:1047D0006E736974696F6E616C2F2F454E222022B3
:1047E000687474703A2F2F7777772E77332E6F7225
:1047F000672F54522F68746D6C342F6C6F6F736514
:104800002E647464223E0A3C68746D6C3E0A20205B
:104810003C686561643E0A202020203C7469746C09
:10482000653E57656C636F6D6520746F20746865B5
:104830002075495020776562207365727665722114
:104840003C2F7469746C653E0A202020203C6C6902
:104850006E6B2072656C3D227374796C657368654C
:1048600065742220747970653D22746578742F63B5
:1048700073732220687265663D227374796C652EAD
:10488000637373223E20200A20203C2F68656164F8
:104890003E0A20203C626F6479206267636F6C6F10
:1048A000723D2223666666656563222074657874AE
:1048B0003D22626C61636B223E0A0A20203C6469DF
:1048C0007620636C6173733D226D656E75223E0ABE
:1048D00020203C64697620636C6173733D226D65B2
:1048E0006E75626F78223E3C6120687265663D227B
:1048F0002F223E46726F6E7420706167653C2F6197
:104900003E3C2F6469763E0A20203C646976206331
:104910006C6173733D226D656E75626F78223E3CEB
:104920006120687265663D2266696C65732E7368E6
:10493000746D6C223E46696C652073746174697392
:10494000746963733C2F613E3C2F6469763E0A2094
:10495000203C64697620636C6173733D226D656EE3
:1049600075626F78223E3C6120687265663D2273F5
:10497000746174732E7368746D6C223E4E65747727
:104980006F726B20737461746973746963733C2F05
:10499000613E3C2F6469763E0A20203C64697620A3
:1049A000636C6173733D226D656E75626F78223E34
:1049B0003C6120687265663D227463702E73687472
:1049C0006D6C223E4E6574776F726B0A2020636FA8
:1049D0006E6E656374696F6E733C2F613E3C2F642D
:1049E00069763E0A20203C62723E0A20203C2F64F9
:1049F00069763E0A20200A20203C64697620636C98
:104A00006173733D22636F6E74656E74626C6F6365
:104A10006B223E0A002F696E6465782E68746D6C97
:104A2000003C21444F43545950452048544D4C209C
:104A30005055424C494320222D2F2F5733432F2FBF
:104A40004454442048544D4C20342E30205472613C
:104A50006E736974696F6E616C2F2F454E223E0D27
:104A60000A3C212D2D2073617665642066726F6D7E
:104A70002075726C3D283030323629687474703A73
:104A80002F2F3139322E3136382E302E31352F310D
:104A90003233343536202D2D3E0D0A3C48544D4CD2
:104AA0003E3C484541443E0D0A3C7469746C653E89
:104AB000BBB6D3ADBDF8C8EBB7DCB6B753544D3376
:104AC00032BFAAB7A2B0E5C7B6C8EB574542D2B3CA
:104AD000C3E620506F7765722042792075495031C6
:104AE0002E30213C2F7469746C653E0D0A3C4D4597
:104AF000544120687474702D65717569763D436FFB
:104B00006E74656E742D5479706520636F6E746574
:104B10006E743D22746578742F68746D6C3B2063ED
:104B20006861727365743D676232333132223E0DC3
:104B30000A3C464F524D20616374696F6E3D2F20D1
:104B40006D6574686F643D6765743E0D0A3C4D4544
:104B5000544120636F6E74656E743D224D5348540A
:104B60004D4C20362E30302E323930302E35353106
:104B70003222206E616D653D47454E455241544F8E
:104B8000523E3C2F484541443E0D0A3C626F6479D9
:104B9000206267636F6C6F723D222366666665658F
:104BA000632220746578743D22626C61636B223EDF
:104BB0000D0A0D0A20203C64697620636C617373D2
:104BC0003D226D656E75223E0D0A20203C6469769B
:104BD00020636C6173733D226D656E75626F782220
:104BE0003E3C6120687265663D222F223E46726F10
:104BF0006E7420706167653C2F613E3C2F6469765E
:104C00003E0D0A20203C64697620636C6173733D1D
:104C1000226D656E75626F78223E3C612068726518
:104C2000663D2266696C65732E7368746D6C223EF6
:104C300046696C6520737461746973746963733C4D
:104C40002F613E3C2F6469763E0D0A20203C64694A
:104C50007620636C6173733D226D656E75626F784B
:104C6000223E3C6120687265663D227374617473F4
:104C70002E7368746D6C223E4E6574776F726B2074
:104C8000737461746973746963733C2F613E3C2F64
:104C90006469763E0D0A20203C64697620636C616D
:104CA00073733D226D656E75626F78223E3C6120A4
:104CB000687265663D227463702E7368746D6C2231
:104CC0003E4E6574776F726B0D0A2020636F6E6EB7
:104CD000656374696F6E733C2F613E3C2F64697627
:104CE0003E0D0A20203C62723E0D0A20203C2F64BB
:104CF00069763E0D0A20203C64697620636C6173FE
:104D0000733D22636F6E74656E74626C6F636B22A9
:104D10003E0D0A203C2F626F64793E0D0A3C424FE3
:104D200044593E3C464F4E542073697A653D353EAA
:104D30000D0A3C43454E5445523EBBF9D3DAB7DC2D
:104D4000B6B7B0E653544D3332BFAAB7A2B0E5B5FB
:104D5000C4576562B7FECEF1C6F7A3A8504F5745BA
:104D60005220425920754950312E30293C2F43455D
:104D70004E5445523E3C2F464F4E543E3C42523ECE
:104D80000D0A3C503E0D0A3C503E0D0A3C43454E38
:104D90005445523E4D4355A3BA53544D33324631D8
:104DA0003033564554362C3531324B20466C6173C6
:104DB000682C2036344B205352414D3C2F43454EF6
:104DC0005445523E0D0A3C43454E5445523ECDF8A3
:104DD000C2E7A3BA454E4332384A3630202031303C
:104DE0004DD2D4CCABCDF8A3AC49503A3139322EA8
:104DF0003136382E302E3135203C2F43454E544528
:104E0000523E0D0A3C503E0D0A3C43454E5445521D
:104E10003ECAE4C8EBD2AAB5E3C1C1B5C44C45440F
:104E20003A3C494E505554206E616D653D6C656449
:104E30003E3C2F43454E5445523E3C42523E0D0AA5
:104E40003C43454E5445523E3C494E5055542074C7
:104E50007970653D7375626D69742076616C7565F6
:104E60003DC8B7B6A83E3C494E50555420747970A1
:104E7000653D72657365742076616C75653DD6D845
:104E8000C9E83E3C2F43454E5445523E0D0A3C4D29
:104E90004152515545453E51513A393139313237F8
:104EA000343C2F4D4152515545453E0D0A3C4D4134
:104EB00052515545453E4242533A206F75727374C4
:104EC0006D2E356436642E636F6D200D0ACCD4B11F
:104ED000A6B5EAC6CC3A6F757273746D2E74616FA5
:104EE00062616F2E636F6D3C2F4D415251554545A8
:104EF0003E3C2F464F524D3E3C2F424F44593E3C84
:104F00002F48544D4C3E0D0A20002F7374796C6568
:104F10002E637373006831200A7B0A202074657841
:104F2000742D616C69676E3A2063656E7465723BBF
:104F30000A2020666F6E742D73697A653A31347079
:104F4000743B0A2020666F6E742D66616D696C7902
:104F50003A617269616C2C68656C7665746963612D
:104F60003B0A2020666F6E742D7765696768743A16
:104F7000626F6C643B0A202070616464696E673AFA
:104F8000313070783B200A7D0A0A626F64790A7BAF
:104F90000A0A20206261636B67726F756E642D630D
:104FA0006F6C6F723A20236666666565633B0A2004
:104FB00020636F6C6F723A626C61636B3B0A0A200C
:104FC00020666F6E742D73697A653A3870743B0A87
:104FD0002020666F6E742D66616D696C793A61721E
:104FE00069616C2C68656C7665746963613B0A7DE8
:104FF0000A0A2E6D656E750A7B0A20206D61726744
:10500000696E3A203470783B0A20207769647468AE
:105010003A3630253B0A0A202070616464696E6765
:105020003A3270783B0A090A2020626F7264657216
:105030003A20736F6C6964203170783B0A202062DB
:1050400061636B67726F756E642D636F6C6F723A1C
:1050500020236666666364323B0A20207465787498
:105060002D616C69676E3A6C6566743B0A20200A94
:105070002020666F6E742D73697A653A3970743BBF
:105080000A2020666F6E742D66616D696C793A61D5
:105090007269616C2C68656C7665746963613B202C
:1050A000200A7D0A0A6469762E6D656E75626F78D6
:1050B0000A7B0A202077696474683A203235253BE0
:1050C0000A2020626F726465723A20303B0A202009
:1050D000666C6F61743A206C6566743B0A7465781F
:1050E000742D616C69676E3A2063656E7465723BFE
:1050F0000A7D0A0A2E636F6E74656E74626C6F634C
:105100006B0A7B20200A20206D617267696E3A204D
:105110003470783B0A202077696474683A36302509
:105120003B0A0A202070616464696E673A327078C5
:105130003B0A0A2020626F726465723A20317078EF
:1051400020646F747465643B0A20206261636B673E
:10515000726F756E642D636F6C6F723A2077686939
:1051600074653B0A0A2020666F6E742D73697A6538
:105170003A3870743B0A2020666F6E742D66616D3C
:10518000696C793A617269616C2C68656C766574DA
:105190006963613B20200A0A7D0A0A702E696E74D9
:1051A000726F0A7B0A20206D617267696E2D6C65D3
:1051B00066743A323070783B0A20206D61726769FC
:1051C0006E2D72696768743A323070783B0A0A2033
:1051D00020666F6E742D73697A653A313070743B56
:1051E0000A2F2A2020666F6E742D776569676874B0
:1051F0003A626F6C643B202A2F0A2020666F6E741F
:105200002D66616D696C793A617269616C2C6865B3
:105210006C7665746963613B20200A7D0A0A702EF2
:10522000636C696E6B0A7B0A2020666F6E742D7347
:10523000697A653A313270743B0A2020666F6E7469
:105240002D66616D696C793A636F75726965722C50
:105250006D6F6E6F73706163653B20200A20207450
:105260006578742D616C69676E3A63656E746572FA
:105270003B0A7D0A0A702E636C696E6B390A7B0AE1
:105280002020666F6E742D73697A653A3970743BAD
:105290000A2020666F6E742D66616D696C793A63C1
:1052A0006F75726965722C6D6F6E6F737061636577
:1052B0003B20200A2020746578742D616C69676E2C
:1052C0003A63656E7465723B0A7D0A0A0A700A7B4E
:1052D0000A202070616464696E672D6C6566743A9B
:1052E000313070783B0A7D0A0A702E7269676874E3
:1052F0000A7B0A2020746578742D616C69676E3AA8
:1053000072696768743B200A7D0A0A002F74637013
:105310002E7368746D6C0025213A202F68656164D6
:1053200065722E68746D6C0A3C68313E437572720A
:10533000656E7420636F6E6E656374696F6E733C27
:105340002F68313E3C62723E3C7461626C6520772E
:10535000696474683D2231303025223E0A3C747203
:105360003E3C74683E4C6F63616C3C2F74683E3CFD
:1053700074683E52656D6F74653C2F74683E3C7472
:10538000683E53746174653C2F74683E3C74683E9B
:1053900052657472616E736D697373696F6E733C7D
:1053A0002F74683E3C74683E54696D65723C2F747E
:1053B000683E3C74683E466C6167733C2F74683E7F
:1053C0003C2F74723E0A2521207463702D636F6E2A
:1053D0006E656374696F6E730A25213A202F666FBC
:1053E0006F7465722E68746D6C002F666164652E33
:1053F000706E670089504E470D0A1A0A0000000DB2
:1054000049484452000000040000000A080200005D
:10541000001C996859000000097048597300000B7E
:105420001300000B1301009A9C1800000007744938
:105430004D4507D60608141B39AF5BC0E3000000DA
:105440001D74455874436F6D6D656E7400437265CD
:1054500061746564207769746820546865204749E1
:105460004D50EF64256E0000003A4944415408D77E
:10547000758C3112001010C42E379E4065FDFF83DD
:10548000F40A1C8D549BC9CC9A3D9073716791D4DA
:105490007436A95501F82958C8BF48C481740BA3B4
:1054A0000F7CDB04E84005DFA1F3FC730000000083
:1054B00049454E44AE426082002F73746174732E6E
:1054C0007368746D6C0025213A202F6865616465EE
:1054D000722E68746D6C0A3C68313E4E6574776F4D
:1054E000726B20737461746973746963733C2F68A1
:1054F000313E0A3C63656E7465723E0A3C746162BB
:105500006C652077696474683D22333030222062F4
:105510006F726465723D2230223E0A3C74723E3CDA
:1055200074643E3C7072653E0A4950202020202061
:105530002020202020205061636B657473207265E9
:105540006365697665640A202020202020202020C1
:10555000202020205061636B6574732073656E7426
:105560000A0920202020205061636B657473206439
:10557000726F707065640A4950206572726F727341
:105580002020202049502076657273696F6E2F6845
:105590006561646572206C656E6774680A202020FE
:1055A000202020202020202020204950206C656EC3
:1055B0006774682C206869676820627974650A20BE
:1055C0002020202020202020202020204950206C36
:1055D000656E6774682C206C6F7720627974650A39
:1055E0002020202020202020202020202049502062
:1055F000667261676D656E74730A2020202020201A
:105600002020202020202048656164657220636886
:1056100065636B73756D0A202020202020202020D8
:105620002020202057726F6E672070726F746F6336
:105630006F6C0A49434D500920202020205061639F
:105640006B6574732072656365697665640A2020F2
:1056500020202020202020202020205061636B6506
:1056600074732073656E740A20202020202020206F
:1056700020202020205061636B6574732064726F5A
:10568000707065640A202020202020202020202007
:10569000202054797065206572726F72730A5443CA
:1056A00050202020202020202020205061636B6586
:1056B00074732072656365697665640A2020202012
:1056C0002020202020202020205061636B657473EF
:1056D0002073656E740A20202020202020202020A6
:1056E0002020205061636B6574732064726F70704A
:1056F00065640A2020202020202020202020202037
:10570000436865636B73756D206572726F72730A9F
:1057100020202020202020202020202020446174D0
:1057200061207061636B65747320776974686F754D
:10573000742041434B730A20202020202020202069
:10574000202020205265736574730A2020202020B9
:10575000202020202020202052657472616E736DFD
:10576000697373696F6E730A0920202020204E6FC1
:1057700020636F6E6E656374696F6E206176616C15
:105780006961626C650A092020202020436F6E6EDB
:10579000656374696F6E20617474656D70747320D5
:1057A000746F20636C6F73656420706F7274730A1A
:1057B0003C2F7072653E3C2F74643E3C74643E3CEA
:1057C0007072653E2521206E65742D73746174734B
:1057D0000A3C2F7072653E3C2F7461626C653E0A14
:1057E0003C2F63656E7465723E0A25213A202F6650
:1057F0006F6F7465722E68746D6C0A000000000093
:10580000F440000805410008D1000000000000003D
:10581000FC570008D6410008E0410008A100000044
:105820000000000010580008814200088E42000865
:10583000E604000000000000245800087447000837
:1058400081470008120000000000000038580008DE
:1058500093470008A0470008750200000000000000
:105860004C580008154A0008214A0008E9040000C5
:1058700000000000605800080A4F0008154F00089B
:10588000F703000000000000745800080C530008E3
:1058900017530008D30000000000000088580008DB
:1058A000EA530008F4530008C5000000000000009F
:1058B0009C580008B9540008C6540008360300007C
:1058C00000000000687474703A2F2F0032303020CE
:1058D000003330312000333032200047455420005F
:1058E000485454502F312E3000485454502F312EEC
:1058F0003100636F6E74656E742D747970653A2033
:1059000000746578742F68746D6C006C6F636174DB
:10591000696F6E3A2000686F73743A20000D0A00B8
:105920002F696E6465782E68746D6C002F34303486
:105930002E68746D6C00526566657265723A004837
:105940005454502F312E3020323030204F4B0D0A1E
:105950005365727665723A207549502F312E30208A
:10596000687474703A2F2F7777772E736963732E6C
:1059700073652F7E6164616D2F7569702F0D0A4309
:105980006F6E6E656374696F6E3A20636C6F7365DA
:105990000D0A00485454502F312E3020343034201A
:1059A0004E6F7420666F756E640D0A53657276656E
:1059B000723A207549502F312E3020687474703A35
:1059C0002F2F7777772E736963732E73652F7E6120
:1059D00064616D2F7569702F0D0A436F6E6E65637C
:1059E00074696F6E3A20636C6F73650D0A00436FC4
:1059F0006E74656E742D747970653A207465787470
:105A00002F706C61696E0D0A0D0A00436F6E74652C
:105A10006E742D747970653A20746578742F68748B
:105A20006D6C0D0A0D0A00436F6E74656E742D74F3
:105A30007970653A20746578742F6373730D0A0D5D
:105A40000A00436F6E74656E742D747970653A2028
:105A5000746578742F746578740D0A0D0A00436FAD
:105A60006E74656E742D747970653A20696D616726
:105A7000652F706E670D0A0D0A00436F6E74656EB8
:105A8000742D747970653A20696D6167652F676957
:105A9000660D0A0D0A00436F6E74656E742D74797D
:105AA00070653A20696D6167652F6A7065670D0AD8
:105AB0000D0A00436F6E74656E742D747970653ACB
:105AC000206170706C69636174696F6E2F6F6374AD
:105AD00065742D73747265616D0D0A0D0A002E6870
